:0B019700C0F9A4B0999282F88090FF9C
:0501A200010800C1028C
:06017B00E4F5087F0AFE16
:10018100EF1FAA0670011E4A600BE4FDEDC39472D5
:0501910050EE0D80F7A7
:010196002246
:10013D00309406309503C20222A295920120940EAE
:10014D00A2959200D2022096F412017B80EF30022C
:10015D001CC20220010B300008E508F4600F0508F1
:0D016D0022300109200006E5086002150897
:01017A002262
:100003007580FF7590FF75A0FFE4F5C875CDFC758D
:10001300CC66D2ADD2AFD2CAF50812013D2096FA12
:0500230012017B80F5D5
:03002B000200BA16
:1000BA00C0E0C0F0C083C082C0D075D000C000C00C
:1000CA0007C2CAC2CF75CDFC75CC66E50AC39403D4
:1000DA00400B750A0075097F75A0FF8045E5087514
:1000EA00F00A8485F00BE50875F06484E5F075F094
:1000FA000A84F50CE50875F06484F50D700A750D2F
:10010A000AE50C7003750C0AAF0A050A740B2FF87E
:10011A00E690019793F5808509A0E509C313448009
:10012A00F509D2CAD007D000D0D0D082D083D0F07F
:03013A00D0E032E0
:0300000002002ECD
:0C002E00787FE4F6D8FD75812002007593
:10003A00020003E493A3F8E493A34003F68001F2D9
:10004A0008DFF48029E493A3F85407240CC8C333C7
:10005A00C4540F4420C8834004F456800146F6DF96
:10006A00E4800B01020408102040809001A2E47E83
:10007A00019360BCA3FF543F30E509541FFEE4938B
:10008A00A360010ECF54C025E060A840B8E493A352
:10009A00FAE493A3F8E493A3C8C582C8CAC583CA7D
:1000AA00F0A3C8C582C8CAC583CADFE9DEE780BE35
:0101A7000057
:00000001FF
