:0300000002033DBB
:0C033D00787FE4F6D8FD75812E02038461
:10045300783A00793A006C6566740072696768746B
:10046300006D6964646C65006E6F7468696E670023
:0604730000000000000083
:0E054200011A00011B000213271002152710DA
:0B055D00EF1FAC0670011E4C70F62270
:1004D300E4FDFCC3ED9FEC9E500DE4FB0BBB7DFCE8
:0704E3000DBD00010C80ECCF
:0104EA0022EF
:0C055100E4F588D2AFD2AAD2A9D2BA2217
:0203C900AD077E
:1003CB00C2AAEDC2B37FC87E0012055DC2B27F2800
:1003DB007E0012055DD2B3E4FF20B3FDEDA8070844
:1003EB008002C313D8FC1392B230B3FD0FBF08E9E0
:1003FB0020B3FDA2D0B392B230B3FD20B3FDD2B285
:0B040B0030B3FD20B3FD30B3FDD2AADA
:0104160022C3
:10000300E521A2D0B3E433B511037F01227F00229F
:10017A00E50924FF9208E50A24FF9209E50B24FF0A
:10018A00920AE50C24FF920BE50D24FF920CE50E72
:10019A0024FF920DE50F24FF920EE51024FF920F23
:1001AA00120003EF6066E51BC39403500AAF1B05F8
:1001BA001B74172FF8A621E51B6403704FF51BE586
:1001CA001730E417C3E49518FF74019400FEC3E5E1
:1001DA00149FF514E5139EF513800BE5182514F505
:1001EA0014E43513F513E51730E516C3E49519FF42
:1001FA0074019400FEC3E5169FF516E5159EF515E4
:0D020A0022E5192516F516E43515F5152227
:03001300020417CD
:10041700C0E0C0D075D000C000C006C007E51AD341
:10042700940A501230B3FDA2B2E433FFAE1A051A94
:1004370074082EF8A607E51AB40A0612017A751A87
:0C04470000D007D006D000D0D0D0E032AA
:100479007F281204977F281204977F281204977FF8
:0E0489000C1204977F801204977F01020497E3
:1004EB00D2A1C2A0D2A2E580540F44F0F580E580E2
:0604FB0020E7FBC2A22273
:10050100C2A153800FE580540FFEEF54F04EF580E9
:06051100D2A200C2A222EA
:100497001204EBC2A0120501EFC454F0FF53800F02
:0E04A700E580540FFEEF54F04EF58002051173
:1004B5001204EBD2A0120501EFC454F0FF53800FD4
:0E04C500E580540FFEEF54F04EF58002051155
:10052D0053050FEF7006ED2480FC8004ED24C0FC14
:05053D00AF0402049769
:0805680012052DAF030204B5DA
:1005170012052D12010CFF600C1204B5740129F9A4
:06052700E43AFA80EE2226
:080217008F228D238A248B2520
:10021F0078277C007D007BFF7A0479737E007F0650
:10022F001200E685242D85252EE5254524700AAF7D
:10023F0022FE7B30AD23020568E4FBC3E52E94015B
:10024F00E52D940040020526AE2DAF2E7C007D0AD1
:10025F001201258E2D8F2E0BBB06E085242D8525B3
:10026F002EE526D394004029AE2DAF2E7C007D0ABB
:10027F00120125ED2430FF74262526F8A607AE2D92
:10028F00AF2E7C007D0A1201258E2D8F2E15268014
:0E029F00D07B007A007927AD23AF221205171D
:0102AD00222E
:1002AE001204791205517FF41203C9C2AA7F647E2B
:1002BE00001204D3D2AA7F011204977BFF7A04792D
:1002CE0053E4FDFF120517AB14AA137D02E4FF12CF
:1002DE0002177BFF7A0479567D08E4FF120517ABEF
:1002EE0016AA157D0AE4FF120217E51730E00AC2BE
:1002FE00B67BFF7A0479598026E51730E10AC2B63B
:10030E007BFF7A04795E8017E51730E20AC2B67B6E
:10031E00FF7A0479648008D2B67BFF7A04796BE4A5
:0F032E00FD7F011205177F327E001204D38087F6
:100349000202AEE493A3F8E493A34003F68001F21A
:1003590008DFF48029E493A3F85407240CC8C333B5
:10036900C4540F4420C8834004F456800146F6DF84
:10037900E4800B0102040810204080900542E47ECD
:10038900019360BCA3FF543F30E509541FFEE49379
:10039900A360010ECF54C025E060A840B8E493A340
:1003A900FAE493A3F8E493A3C8C582C8CAC583CA6B
:1003B900F0A3C8C582C8CAC583CADFE9DEE780BE23
:0105500000AA
:10001600E709F608DFFA8046E709F208DFFA803ECC
:1000260088828C83E709F0A3DFFA8032E309F608B9
:10003600DFFA8078E309F208DFFA807088828C8321
:10004600E309F0A3DFFA806489828A83E0A3F608D5
:10005600DFFA805889828A83E0A3F208DFFA804CAF
:1000660080D280FA80C680D4806980F28033801086
:1000760080A680EA809A80A880DA80E280CA8033EF
:1000860089828A83ECFAE493A3C8C582C8CCC58367
:10009600CCF0A3C8C582C8CCC583CCDFE9DEE78037
:1000A6000D89828A83E493A3F608DFF9ECFAA9F0B6
:1000B600EDFB2289828A83ECFAE0A3C8C582C8CC0C
:1000C600C583CCF0A3C8C582C8CCC583CCDFEADE25
:1000D600E880DB89828A83E493A3F208DFF980CC87
:1000E60088F0EF60010E4E60C388F0ED2402B40480
:1000F6000050B9F582EB2402B4040050AF23234527
:06010600822390006673E5
:10010C00BB010689828A83E0225002E722BBFE02F1
:09011C00E32289828A83E4932224
:10012500BC000BBE0029EF8DF084FFADF022E4CCBE
:10013500F875F008EF2FFFEE33FEEC33FCEE9DEC87
:10014500984005FCEE9DFE0FD5F0E9E4CEFD22EDCD
:10015500F8F5F0EE8420D21CFEADF075F008EF2F17
:10016500FFED33FD4007985006D5F0F222C398FD08
:050175000FD5F0EA22A5
:00000001FF
