:10000E00FEFDFBF7EFDFBF7F0102040810204080EA
:10001E00FFFFFFFFFFFFFFFFE1C9C9E1F1E1C9FFEC
:10002E00E1F3F3F3F3F3E1FFE3C9F9F9F9C9E3FF00
:10003E00C9C9C9C1C9C9C9FFC9C1C1C9C9C9C9FFCE
:10004E00E3C9F9F9F9C9E3FFC9C9C9C9C9C9E3FFC8
:10005E00FFFFFFFFFFFFFFFFE3C9C9E3C9C9E3FFCE
:10006E00C9C9E3E3E3C9C9FFE3C9C9E3C9C9E3FFEA
:10007E00FFFFFFFFFFFFFFFFC1F3F3F3F3F3F3FF08
:10008E00C1F9F9E1F9F9C1FFE3C9F9E3CFC9E3FF1A
:10009E00C1F3F3F3F3F3F3FFFFFFFFFFFFFFFFFFE8
:1000AE00E1C9C9E1F1E1C9FFC1CFE7E3F3F9C1FF4E
:1000BE00FFFFFFC1FFFFFFFFE3C9CFE7F3F9C1FF6A
:1000CE00E3C9C9C9C9C9E3FFE3C9C9C9C9C9E3FFBE
:1000DE00E3C9C9C3CFC9E3FFFFFFFFFFFFFFFFFF68
:1000EE00E1C9C9C9C9C9E1FFC1F9F9E1F9F9C1FF0E
:1000FE00C9C1C1C9C9C9C9FFC1C9C9C9C9C9C1FF16
:10010E00FFFFFFFFFFFFFFFFE3C9F9E3CFC9E3FFE7
:10011E00CCCCE1F3F3F3F3FFE3C9F9E3CFC9E3FF8B
:10012E00C1F3F3F3F3F3F3FFC1F9F9E1F9F9C1FF09
:10013E00C9C1C1C9C9C9C9FFFFFFFFFFFFFFFFFF4B
:1001BF00E4FEC296EF339294EF25E0FFD2960EBE87
:0201CF0008F036
:0101D100220B
:05000300C295D2952218
:10014E007E00E50B2508FFEE350AFE741E2FF582A4
:10015E0074003EF583E493FF1201BFE5089000168C
:10016E0093FF1201BF1200030508E508B40803E46B
:10017E00F5080509E509B4C80BE4F509050BE50B0F
:10018E007002050AE50BB4290AE50AB40105E4F587
:04019E000AF50B2231
:0F01D200758901758CFC758A1775A882D28C22ED
:03000B000201A24D
:1001A200C0E0C083C082C0D075D000758CFC758A57
:0D01B2001712014ED0D0D082D083D0E032A1
:0501ED001201D280FEAA
:030000000201E119
:0C01E100787FE4F6D8FD75810B0201ED7B
:00000001FF
