:0E006E00E4FFFE0FBF00010EBE4EF8BF20F5EE
:01007C002261
:10000300E4FD20940C12006E2094010DBD09027DC5
:1000130001ED14B40800504E90002975F003A4C5F7
:100023008325F0C5837302004102004602004B02A0
:10003300005002005502005A02005F0200647580FE
:10004300FE80BF7580FD80BA7580FB80B57580F733
:1000530080B07580EF80AB7580DF80A67580BF8030
:0B006300A175807F809C7580FF809756
:0300000002007D7E
:0C007D00787FE4F6D8FD758107020003CF
:00000001FF
