:1006C100D2AFD2A8D2AAD2B81205F412090275800B
:1006D100FF7F2C7E011209331202347580FF7F2CBB
:1006E1007E011209331200037580FF7F2C7E0112F7
:1006F10009331208D71209027580FF7F2C7E01127F
:1007010009331207617580FF7F2C7E0112093312B4
:1007110008421209027F2C7E011209331208741259
:1007210009027F2C7E0112093312080E7580FF7FAA
:100731002C7E011209331208A67580FF7F2C7E01E1
:100741001209331207BF7580FF7F2C7E0112093316
:100751001204627580FF7F2C7E011209330206C9E3
:0902340012092C7580BF30872DE2
:05023D00E4F508F509DD
:10024200C287E4F50A050AE50AB40FF9D287E4F594
:080252000A050AE50AB432F9BD
:10025A000509E50970020508B45EDDE508B401D8B0
:06026A007580DF30863BC9
:05027000E4F508F509AA
:10027500C286E4F50A050AE50AB40FF9C287E4F572
:100285000A050AE50AB401F9D286D287E4F50A051A
:060295000AE50AB432F98B
:10029B000509E50970020508B45ECFE508B401CA8B
:0602AB007580EF30853B79
:0502B100E4F508F50969
:1002B600C285E4F50A050AE50AB40FF9C286E4F533
:1002C6000A050AE50AB401F9D285D286E4F50A05DB
:0602D6000AE50AB432F94A
:1002DC000509E50970020508B45ECFE508B401CA4A
:0602EC007580F730843B31
:0502F200E4F508F50928
:1002F700C284E4F50A050AE50AB40FF9C285E4F5F4
:100307000A050AE50AB401F9D284D285E4F50A059B
:060317000AE50AB432F908
:10031D000509E50970020508B45ECFE508B401CA08
:06032D007580FB30833BEC
:05033300E4F508F509E6
:10033800C283E4F50A050AE50AB40FF9C284E4F5B4
:100348000A050AE50AB401F9D283D284E4F50A055C
:060358000AE50AB432F9C7
:10035E000509E50970020508B45ECFE508B401CAC7
:06036E007580FD30823BAA
:05037400E4F508F509A5
:10037900C282E4F50A050AE50AB40FF9C283E4F575
:100389000A050AE50AB401F9D282D283E4F50A051D
:060399000AE50AB432F986
:10039F000509E50970020508B45ECFE508B401CA86
:0603AF007580FE30813B69
:0503B500E4F508F50964
:1003BA00C281E4F50A050AE50AB40FF9C282E4F536
:1003CA000A050AE50AB401F9D281D282E4F50A05DE
:0603DA000AE50AB432F945
:1003E0000509E50970020508B45ECFE508B401CA45
:0603F0007580FF30803B28
:0503F600E4F508F50923
:1003FB00C280E4F50A050AE50AB40FF9C281E4F5F7
:10040B000A050AE50AB401F9D280D281E4F50A059E
:06041B000AE50AB432F903
:100421000509E50970020508B45ECFE508B401CA03
:0304310030872DE4
:05043400E4F508F509E4
:10043900C280E4F50A050AE50AB401F9D280E4F5B7
:080449000A050AE50AB432F9C4
:100451000509E50970020508B45EDDE508B401D8B7
:010461002278
:0C0003007580FE12092F7580FD30802DE5
:05000F00E4F508F5090D
:10001400C280E4F50A050AE50AB40AF9D280E4F5D7
:080024000A050AE50AB432F9ED
:10002C000509E50970020508B45EDDE508B401D8E0
:06003C007580FB30813BE2
:05004200E4F508F509DA
:10004700C281E4F50A050AE50AB40FF9C280E4F5AE
:100057000A050AE50AB401F9D281D280E4F50A0556
:060067000AE50AB432F9BB
:10006D000509E50970020508B45ECFE508B401CABB
:06007D007580F730823BA4
:05008300E4F508F50999
:10008800C282E4F50A050AE50AB40FF9C281E4F56B
:100098000A050AE50AB401F9D282D281E4F50A0513
:0600A8000AE50AB432F97A
:1000AE000509E50970020508B45ECFE508B401CA7A
:0600BE007580EF30833B6A
:0500C400E4F508F50958
:1000C900C283E4F50A050AE50AB40FF9C282E4F528
:1000D9000A050AE50AB401F9D283D282E4F50A05D0
:0600E9000AE50AB432F939
:1000EF000509E50970020508B45ECFE508B401CA39
:0600FF007580DF30843B38
:05010500E4F508F50916
:10010A00C284E4F50A050AE50AB40FF9C283E4F5E4
:10011A000A050AE50AB401F9D284D283E4F50A058C
:06012A000AE50AB432F9F7
:100130000509E50970020508B45ECFE508B401CAF7
:060140007580BF30853B15
:05014600E4F508F509D5
:10014B00C285E4F50A050AE50AB40FF9C284E4F5A1
:10015B000A050AE50AB401F9D285D284E4F50A0549
:06016B000AE50AB432F9B6
:100171000509E50970020508B45ECFE508B401CAB6
:0601810075807F30863B13
:05018700E4F508F50994
:10018C00C286E4F50A050AE50AB40FF9C285E4F55E
:10019C000A050AE50AB401F9D286D285E4F50A0506
:0601AC000AE50AB432F975
:1001B2000509E50970020508B45ECFE508B401CA75
:0601C2007580FF30873B51
:0501C800E4F508F50953
:1001CD00C287E4F50A050AE50AB40FF9C286E4F51B
:1001DD000A050AE50AB401F9D287D286E4F50A05C3
:0601ED000AE50AB432F934
:1001F3000509E50970020508B45ECFE508B401CA34
:0302030030802D1B
:05020600E4F508F50914
:10020B00C287E4F50A050AE50AB401F9D287E4F5D9
:08021B000A050AE50AB432F9F4
:100223000509E50970020508B45EDDE508B401D8E7
:0102330022A8
:10084200750AFE850A807F787E00120933750901D8
:10085200AF09E50AA807088002C333D8FCF508F5FA
:10086200807F787E001209330509E509C3940840A8
:01087200DFA6
:010873002262
:10087400750A7F850A807F787E0012093375090125
:10088400AF09E50AA807088002C313D8FCF508F5E8
:10089400807F787E001209330509E509C394084076
:0108A400DF74
:0108A5002230
:1005F4007580FE12092F7580FD12092F7580FB127C
:10060400092F7580F712092F7580EF12092F758055
:10061400DF12092F7580BF12092F12092C75807EF5
:1006240012092F75807D12092F75807B12092F7591
:10063400806F12092F75805F12092F75803F120990
:100644002F75803D12092F75803B12092F75803755
:1006540012092F75802F12092F75801F12092F750B
:10066400801E12092F75801D12092F75801B120917
:100674002F75801712092F75800F12092F75800EA0
:1006840012092F75800D12092F75800B12092F7511
:10069400800712092F75800612092F75800512092B
:1006A4002F75800412092F75800312092F7580029B
:0D06B40012092F75800112092FE4F5802234
:10080E0075801F12092F75808F12092F7580C712E0
:10081E00092F7580E312092F7580F112092F75804B
:10082E00F812092F7580FC12092F7580FE12092F00
:04083E007580FF22A0
:1008A6007580F812092F7580F112092F7580E312F1
:1008B600092F7580C712092F75808F12092F758031
:1008C6001F12092F75803F12092F12092C7580FF00
:0108D60022FF
:1007610075807E7F5A7E001209337580BD7F5A7E67
:10077100001209337580DB7F5A7E001209337580C0
:10078100E77F5A7E001209337580FF7F2C7E0112AC
:1007910009337580E77F5A7E001209337580DB7F4C
:1007A1005A7E001209337580BD7F5A7E00120933CB
:0E07B10075807E7F5A7E001209337580FF220C
:1007BF007580E77F5A7E001209337580C37F5A7E9A
:1007CF00001209337580817F5A7E00120933E4F5D8
:1007DF00801209027F2C7E0112093375807E7F5AA9
:1007EF007E0012093375803C7F5A7E0012093375E3
:0F07FF0080187F5A7E00120933E4F58002090248
:1004620075801F7FB47E001209337580FF7F787E0E
:10047200001209337580F87FB47E0012093375804B
:10048200FF7F787E001209337580E77FB47E001209
:1004920009337580FF7F2C7E011209337580FC7F42
:1004A200B47E001209337580FF7F787E0012093313
:1004B20075803F7FB47E001209337580FF7F2C7EEA
:1004C2000112093375803C7FB47E001209337580B6
:1004D200FF7F787E0012093375803C7FB47E001264
:1004E20009337580FF7F2C7E011209337580C37F2B
:1004F200787E001209337580FF7F787E00120933FF
:100502007580C37F787E001209337580FF7F787E05
:10051200001209337580F07FB47E001209337580B2
:10052200FF7F787E001209337580F07FB47E00125F
:1005320009337580FF7F2C7E011209337580C37FDA
:10054200B47E001209337580FF7F787E0012093372
:100552007580C37F2C7E0112093375800F7FB47EB4
:10056200001209337580FF7F787E0012093375808F
:100572000F7FB47E001209337580FF7F2C7E01123B
:1005820009331208D7E4F5807F64FE1209337580BF
:10059200FF7F237E00120933E4F5807F64FE120997
:1005A200337580FF7F237E00120933E4F5807F6478
:1005B200FE1209337580FF7F237E00120933E4F5B2
:1005C200807F64FE1209337580FF7F237E0012094B
:1005D20033E4F5807F64FE1209337580FF7F237E4A
:1005E200001209331209027FB47E001209337580AA
:0205F200FF22E6
:07092C0075807F7F3C7E0017
:10093300D28CEF4E6012758CE3758A33308DFDC215
:0B0943008DEF1F70ED1E80EAC28C22B9
:1008D7007580FFE4F5087509FA0508AF0812094E97
:1008E7007580FF6308FFAF0812094EE4F5806308BF
:0A08F700FF1509E509D3940050DF56
:0109010022D3
:10090200E4F580F5087509FA0508AF0812094EE406
:10091200F5806308FFAF0812094E7580FF6308FF78
:090922001509E509D3940050DF2A
:01092B0022A9
:0F094E001FEF600BE4FEEEC3940150F40E80F730
:01095D002277
:0300000002095E94
:0C095E00787FE4F6D8FD75810A0206C11E
:00000001FF
