:0300000002023FBA
:0C023F00787FE4F6D8FD75810E0201FD09
:10001E00FCEF01F4FD4501F4FCEF01F4FCEF00FAF6
:10002E00FC8F00FAFCEF01F4FD4501F4FCEF03E850
:10003E00FC8F01F4FCEF01F4FBE901F4FB6800FA1C
:10004E00FB6800FAFAD901F4F9DF05DCFB6801F46C
:10005E00FBE901F4FC8F01F4FC8F01F4FBE901F4E0
:10006E00FCEF01F4FC8F01F4FBE901F4FB6800FAEC
:10007E00FBE900FAFB6800FAFAD900FAF9DF01F49D
:10008E00F91F01F4F9DF07D0000003E8000003E8D0
:10009E0000000000FCC101F4FD4501F4FD9101F4E6
:1000AE00FD4500FAFCC101F4FCC101F4FD4501F46B
:1000BE00FD9105DCFD4500FAFCC100FAFCC101F41E
:1000CE00FD4501F4FD4501F4FD1B01F4FCC107D013
:1000DE00FCC101F4FD4501F4FD9101F4FD4500FA6A
:1000EE00FCC100FAFC5B01F4FCC100FAFC5B00FAF7
:1000FE00FBE901F4FC5B01F4FCC101F4FD4501F4E4
:10010E00FBE901F4FC5B01F4FCC101F4FC5B00FAB9
:10011E00FBE900FAFBAA03E8FB230BB80000000082
:03001B00020003DD
:0D000300C28E850D8D850E8BD28EB2B63269
:10022600758CFC758A77D28C308DFDC28CC28DEFB1
:090236001F70011E144E70E82235
:1001CA0012012E45F0601312012EFDACF0ECF50D74
:1001DA008D0E758DFF758BF0D28E9000021201592B
:1001EA00FFAEF0120226C28EC28FD2B67F057E0003
:0301FA00020226D8
:060191008B088A09890AAF
:10019700E4F50BF50CE50CAE0B7802C333CE33CE8A
:1001A700D8F9AB08250AF9E5093EFA9000021201D1
:1001B7005945F0600D1201CA050CE50C70D7050B07
:0201C70080D3E3
:0101C9002213
:1001FD00758911D2ABD2AF7BFF7A00791E120191B6
:10020D007FF47E011202267BFF7A0079A212019102
:09021D007FF47E0112022680DE4E
:10012E00BB010A89828A83E0F5F0A3E0225006879C
:10013E00F009E71922BBFE07E3F5F009E31922895E
:0B014E00828A83E493F5F07401932291
:10015900BB0110E58229F582E5833AF583E0F5F0E4
:10016900A3E0225009E92582F886F008E622BBFEC1
:100179000AE92582F8E2F5F008E222E5832AF58307
:08018900E993F5F0A3E99322CC
:00000001FF
