:0A024600C0F9A4B0999282F88090EC
:10000E00E4F517F508C2B3758911D28CC288D2A94E
:10001E00C2A8D2AFC2AFD2B3120250C2B330B2FD39
:10002E00C200D2A8E4F58DF58BC28FD28ED2AFE589
:10003E008DC3941E40F9C28EC2A8300029751800D7
:10004E00850C19E519751900F518E50E4219E4AE7F
:10005E0018AF19FC7D0C1200F08E188F197D3A1214
:10006E0001028E188F19200005E4F518F519E51711
:10007E0025E0240FF8A61808A6190517E517B403EE
:10008E0093E5102512CFE50F3511CF2514CF35137B
:10009E00CF2516CF3515FEEF7802CEC313CE13D86B
:1000AE00F9F5198E181201AB851118851219AF19B1
:1000BE00AE18E51BB50708E51AB50603E4F51CE511
:1000CE001B6F7003E51A6E6002051CE51CC39403DA
:1000DE00400AE4F51C8E1A8F1B120157E4F5170225
:0200EE000022EE
:0300030002023BBB
:0B023B00858D0C858B0ED200C2A8320E
:03000B000201F7F8
:1001F700C0E0C0D0758CFD758A77E50814601114CE
:1002070060182402701D850D8075A07F0508801376
:10021700850B8075A0BF0508800985098075A0DF5B
:08022700750800D0D0D0E032D0
:04015700AB07AA0642
:10015B007C007D641201028F1E7C007D64AF03AEB8
:10016B0002120102AA04AB057C007D0AAF03AE02AA
:10017B001201028F1D7C007D0AAF03AE0212010239
:10018B00AF05E51E90024693F51EE51D93547FF5D2
:0F019B001DEF93C2AF851E09851D0BF50DD2AF69
:0101AA002232
:06025000E4FF0FBF3CFCBF
:010256002285
:1001AB00D3E5109512E50F9511400EAE0FAF1085EC
:1001BB00110F8512108E118F12D3E5109514E50FC8
:1001CB009513400EAE13AF14850F138510148E0FBD
:1001DB008F10D3E5129514E5119513400EAE11AFA8
:0B01EB00128513118514128E138F145F
:0101F60022E6
:0300000002022FCA
:0C022F00787FE4F6D8FD75812002000EF7
:1000F000EF8DF0A4A8F0CF8CF0A428CE8DF0A42E24
:02010000FE22DD
:10010200BC000BBE0029EF8DF084FFADF022E4CCE1
:10011200F875F008EF2FFFEE33FEEC33FCEE9DECAA
:10012200984005FCEE9DFE0FD5F0E9E4CEFD22EDF0
:10013200F8F5F0EE8420D21CFEADF075F008EF2F3A
:10014200FFED33FD4007985006D5F0F222C398FD2B
:050152000FD5F0EA22C8
:00000001FF
