:10000E00FEFDFBF7EFDFBF7F0000000000000000E9
:10001E00007F7F396F46000000417F7F4100000066
:10002E00003E7F4163220000007F7F087F7F00003B
:10003E00007F7F067F7F0000003E7F41632200002D
:10004E00003F7F407F3F000000367F497F36000033
:10005E0000637F1C7F63000000367F497F360000FF
:10006E0000017F7F01010000007F7F4949410000B0
:10007E0000266F497B32000000017F7F01010000E6
:10008E00007F7F396F4600000061795D4F430000AD
:10009E000008080808080000006273594F46000067
:1000AE00003E7F417F3E0000003E7F417F3E0000CC
:1000BE0000266F497F3E0000007F7F417F3E00009B
:1000CE00007F7F4949410000007F7F067F7F00004F
:1000DE00007F7F417F7F000000266F497B3200004A
:1000EE0003077C7C0703000000266F497B3200006B
:1000FE0000017F7F01010000007F7F494941000020
:10010E00007F7F067F7F00000000000000000000DF
:10019A00E4FEC296EF339294EF25E0FFD2960EBEAC
:0201AA0008F05B
:0101AC002230
:05000300C295D2952218
:10011E00E50890000E93FF12019A7E00E50C25086B
:10012E00FFEE350BFE74162FF58274003EF583E458
:10013E0093FF12019A1200030508E508B40803E4C0
:10014E00F508050AE50A70020509B4F412E509B4CA
:10015E00010DE4F509F50A050CE50C7002050BE539
:0F016E000CB4010AE50BB40105E4F50BF50C2206
:0F01AD007589F8758CCCE4F58A75A882D28C22FE
:03000B0002017D72
:10017D00C0E0C083C082C0D075D000758CF8758A80
:0D018D00CC12011ED0D0D082D083D0E03241
:0501C8001201AD80FEF4
:030000000201BC3E
:0C01BC00787FE4F6D8FD75810C0201C8C4
:00000001FF
