:100016001C6132622163236424652B66346733686E
:1000260043693B6A426B4B6C3A6D316E446F4D705F
:1000360015712D721B732C743C752A761D772278E8
:1000460035791A7A453016311E32263325342E3547
:1000560036363D373E3846390E604E2D553D5D5C91
:100066002920545B5B5D4C3B5227412C492E4A2F7D
:10007600712E7030693172327A336B34733574365F
:100086006C3775387D3966205A201C41324221432F
:10009600234424452B463447334843493B4A424B85
:1000A6004B4C3A4D314E444F4D5015512D521B532A
:1000B6002C543C552A561D57225835591A5A453044
:1000C60016311E32263325342E3536363D373E3828
:1000D60046390E7E4E5F552B5D7C2920547B5B7D19
:1000E6004C3A5222413C493E4A3F712E70306931AA
:1000F60072327A336B34733574366C3775387D39B2
:1001060066205A20524943484D43552050533220C9
:1001160054455354005757572E524943484D43555B
:100126002E434F4D0020202020202020202020205C
:0601360020202020200023
:0F00030001170001160001150001120001140081
:100317001203C81202857A017B0AE4FDFF1202DE8E
:100327007A017B1B1202DAE4F5081203C80508E517
:1003370008C3940A40F41202D6C28AD2AAD2AFE501
:0E034700146007AF1312013C80F5D2AF80F1B5
:1003E1008F111203F4851180D2A0C2A1C2A2C2A2B0
:0303F100D2A22273
:0403AD007D017C0052
:1003B1008F11ED4C60031203F4851180C2A0C2A11C
:0703C100C2A2C2A2D2A222D7
:1003F4007580FFC2A0D2A1C2A2D2A2E58020E7FBF1
:03040400AF8022A4
:10028500E4F580FDFC7F381203B112040712040760
:10029500E4FDFC7F381203B1120407120407E4FDE4
:1002A500FC7F381203B11204071204077F381203CA
:1002B500AD7F081203AD7D017C007F011203B17D86
:1002C500017C007F061203B17D017C007F0F0203D4
:0102D500B177
:09038B00F583E493FB7D01AF163C
:100394008B1053050153070FED60034307404307D8
:0903A400801203ADAF100203E169
:0802D6007A017B2B7D01E4FF9E
:0802DE008F0B8D0C8A0D8B0EB5
:1002E600E4F50F530C01530B0FE50E250FF582E4D1
:1002F600350DF583E493FBD394194014E50BD394A1
:100306000F50E6AD0CAF0B120394050F050B80D909
:0103160022C4
:0E0407007FB07E15EF1FAC0670011E4C70F624
:0104150022C4
:1003C8007D05AC051DEC60107E1C7F65EF1FAA063D
:0803D80070011E4A60EC80F484
:0103E00022FA
:0300130002035590
:10035500C0E0C0D0E517D394004012E517940950CA
:100365000CE513C313F51330B2034313800517309F
:10037500B3FDE517D3940A4008751700751401C23B
:06038500AFD0D0D0E03241
:02013C008F0929
:10013E00E51560030201E3E50924EE600E24B960C3
:10014E000C2469700E7515010201F58000751201FF
:10015E000201F5E516D3940F40061202D6E4F51609
:10016E00E51264017037F50AE50A25E02490F58260
:10017E00E43400F583E493FF6509600BE50AC3944C
:10018E003B5004050A80E1EFB5090EE50A25E0248F
:10019E0091F582E4340012038B0516804AE4F50AC9
:1001AE00E50A25E02416F582E43400F583E493FF96
:1001BE006509600BE50AC3943B5004050A80E1EF24
:1001CE00B5090EE50A25E02417F582E43400120382
:1001DE008B05168012E4F515E50924A76006244761
:0A01EE0070058000E4F512E4F5143A
:0101F80022E4
:030000000201F901
:0C01F900787FE4F6D8FD75811702024003
:10020500020317E493A3F8E493A34003F68001F2F5
:1002150008DFF48029E493A3F85407240CC8C333FA
:10022500C4540F4420C8834004F456800146F6DFC9
:10023500E4800B0102040810204080900003E47E56
:10024500019360BCA3FF543F30E509541FFEE493BE
:10025500A360010ECF54C025E060A840B8E493A385
:10026500FAE493A3F8E493A3C8C582C8CAC583CAB0
:10027500F0A3C8C582C8CAC583CADFE9DEE780BE68
:0100120000ED
:00000001FF
