:10016000FFFEFDFBF7EFDFBF7FBFDFEFF7FBFDFE1D
:10017000FEFCF8F0E0C08000E7DBBD7E3C180081AB
:08018000C3E77EBDDBE7BDDB38
:0C018800E4FFE4FE0EBEFAFC0FBFC8F658
:010194002248
:1001260078087C007D007BFF7A0179607E007F285D
:100136001200D3753000753100753208E4FDAB301E
:10014600AA31A9328D827583001200F9F580120159
:0A015600881201880DBD20E680E24A
:0300000002019565
:0C019500787FE4F6D8FD75813202012667
:10000300E709F608DFFA8046E709F208DFFA803EDF
:1000130088828C83E709F0A3DFFA8032E309F608CC
:10002300DFFA8078E309F208DFFA807088828C8334
:10003300E309F0A3DFFA806489828A83E0A3F608E8
:10004300DFFA805889828A83E0A3F208DFFA804CC2
:1000530080D280FA80C680D4806980F28033801099
:1000630080A680EA809A80A880DA80E280CA803302
:1000730089828A83ECFAE493A3C8C582C8CCC5837A
:10008300CCF0A3C8C582C8CCC583CCDFE9DEE7804A
:100093000D89828A83E493A3F608DFF9ECFAA9F0C9
:1000A300EDFB2289828A83ECFAE0A3C8C582C8CC1F
:1000B300C583CCF0A3C8C582C8CCC583CCDFEADE38
:1000C300E880DB89828A83E493A3F208DFF980CC9A
:1000D30088F0EF60010E4E60C388F0ED2402B40493
:1000E3000050B9F582EB2402B4040050AF2323453A
:0600F3008223900053730C
:1000F900BB010CE58229F582E5833AF583E02250BC
:1001090006E92582F8E622BBFE06E92582F8E22205
:0D011900E58229F582E5833AF583E493221F
:00000001FF
