:1000B300FEFDFBF7EFDFBF7F010204081020408045
:1000A000E4FEC296EF339294EF25E0FFD2960EBEA7
:0200B00008F056
:0100B200222B
:0500CF00C295D295224C
:0D00860093FF1200A07FFF1200A01200CF18
:0C0093007F0A7E147DF8DDFEDEFADFF649
:01009F00223E
:10000300E4FBE4FCEC9000B31200860CBC08F50B97
:10001300BB03EFE4FBE4FCECFFC374079FFFE49432
:1000230000FE74B32FF58274003EF583E41200865C
:100033000CBC08E30BBB03DDE4FBE4FCE4FF1200B0
:10004300A0EC9000BB93FF12008D0CBC08EE0BBB21
:1000530003E8E4FBEBC3940350A6E4FCE4FF1200C3
:10006300A0ECFFC374079FFFE49400FE74BB2FF55D
:100073008274003EF583E493FF12008D0CBC08DC10
:030083000B80D11E
:030000000200C338
:0C00C300787FE4F6D8FD75810702000389
:00000001FF
