:0500140001097FC1029B
:10014300AD071FED600BE4FEEEC3947250F20E8018
:01015300F7B4
:010154002288
:07000300AE071FEE70FA22A8
:10012F00E4FD7F64120003B2B60DBD64F5D2B67F55
:04013F006402014312
:1000F800309406309503C20222A295920120940EF4
:10010800A2959200D2022096F475097F80EF300202
:1001180015C20220010730000475080122300106CB
:060128002000037508022F
:01012E0022AE
:1000AA007590FF758921758CFE758A6685098DE4C0
:1000BA00F58BD2AFD2A9D2ABD28C1200F8E508B434
:1000CA000110E509640260041509800312012FE496
:1000DA00F508E508B4020FE509F460040509800390
:0E00EA0012012FE4F5082096D175097F80CC15
:03000B000201559A
:10015500C28E758CFE758A6685098DD28E75800076
:010165003267
:03001B0002000ED2
:06000E00C28E7580FF3276
:0300000002001EDD
:0C001E00787FE4F6D8FD758120020065B3
:10002A000200AAE493A3F8E493A34003F68001F242
:10003A0008DFF48029E493A3F85407240CC8C333D7
:10004A00C4540F4420C8834004F456800146F6DFA6
:10005A00E4800B0102040810204080900014E47E22
:10006A00019360BCA3FF543F30E509541FFEE4939B
:10007A00A360010ECF54C025E060A840B8E493A362
:10008A00FAE493A3F8E493A3C8C582C8CAC583CA8D
:10009A00F0A3C8C582C8CAC583CADFE9DEE780BE45
:0100190000E6
:00000001FF
