:0A03160030313233343536373839D0
:0A030B00E4FEEEC39F50030E80F8DD
:0103150022C5
:02015400AD07F5
:10015600C2907F0212030BE4FBED1392917F021211
:10016600030BD29012030BC290EDC313FD0BBB0819
:01017600E8A0
:010177002265
:10025F00AC05AD07C292C290D2927F0212030BAFD0
:0E026F0005120154AF04120154D290C2922223
:100178007F0212030BE4FCEDC313FD30910343052A
:1001880080D2907F0212030BC29012030B0CBC08A2
:03019800E6AF05CA
:01019B002241
:1002C400C292C290D292120154120178D290C29278
:0102D4002207
:1000F600E4FD7F8E12025FE4FD7F8012025FE4FD65
:100106007F8212025F7D127F8412025F7D167F86D8
:1001160012025F7D117F8812025F7D087F8C0202CA
:010126005F79
:0C02E500E4FFE4FE0EBE21FC0FBF0AF691
:0102F10022EA
:0202D500AD0773
:0D02D700E4FCECC39D50061202E50C80F51E
:0102E40022F7
:1002B100C2A0D2A1D2A200000000A2879200C2A2D5
:0202C100A20099
:0102C3002218
:07019C007F051202D57F3838
:1001A3001202B140FBC2A0C2A1C2A200008F800014
:0C01B300000000D2A200000000C2A22246
:0602F20075F00A84ADF076
:0702F800EF4480FF0201A3A7
:0601BF00EE90031693FF11
:1001C5001202B140FBD2A0C2A1C2A28F80000000E2
:0A01D50000D2A200000000C2A22226
:100127007F0F12019E12019C12019C7F051202D5BE
:100137007F0C1201A37F051202D57F061201A31FB0
:0D0147001202D57F011201A37F050202D52F
:10027D00EF75F00A84FEEF7F491202F21201BFED15
:0A028D0093FF1201C57F320202D573
:10029700EF75F00A84FEEF7F461202F21201BFEDFE
:0A02A70093FF1201C57F320202D559
:1001DF00EF75F00A84FEEF75F00A84ADF07F4312DD
:1001EF0002F81201BFED93FF1201C57F320202D553
:1001FF00EF75F00A84FEEF75F00A84ADF07F0C12F4
:10020F0002F81201BFED93FF1201C57F320202D532
:10021F00EF75F00A84FEEF75F00A84ADF07F0912D6
:10022F0002F81201BFED93FF1201C57F320202D512
:10023F00EF75F00A84FEEF75F00A84ADF07F0612B9
:10024F0002F81201BFED93FF1201C57F320202D5F2
:100003001201277F011202F87F441201C57F61129A
:1000130001C57F741201C57F651201C57F3A1201C4
:10002300C57F081202F87F2D1201C57F0B1202F85B
:100033007F2D1201C57F451202F87F3A1201C57F59
:10004300481202F87F3A1201C51200F67F811202AC
:10005300C4AB07EB5470C4540F75F00AA4FFEB5400
:100063000F2FF508FF12027D7F831202C4AB07EB4B
:100073005470C4540F75F00AA4FFEB540F2FF50905
:10008300FF1202977F851202C4AB07EB5470C4546E
:100093000F75F00AA4FFEB540F2FF50AFF1201DFCF
:1000A3007F871202C4AB07EB5470C4540F75F00A78
:1000B300A4FFEB540F2FF50BFF1201FF7F891202F0
:1000C300C4AB07EB5470C4540F75F00AA4FFEB5490
:1000D3000F2FFF12021F7F8D1202C4AB07EB54F0E8
:1000E300C4540F75F00AA4FFEB540F2FFF12023F05
:0300F30002004FB9
:030000000202FFFA
:0C02FF00787FE4F6D8FD75812002000332
:00000001FF
