:1002C2004348414F205348454E4720424F0030316A
:0902D20032333435363738390077
:0C030100E4FFE4FE0EBE21FC0FBF0AF674
:01030D0022CD
:0202F100AD0757
:0D02F300E4FCECC39D50061203010C80F5E5
:0103000022DA
:1002DB00C2A0D2A1D2A200000000A2879201C2A2AA
:0502EB00A201E433FF55
:0102F00022EB
:07027B007F051202F17F383C
:10028200AE071202DBEF640160F8C2A0C2A1C2A2F3
:1002920000008E8000000000D2A200000000C2A276
:0102A2002239
:07032500EF4480FF02028299
:1002A300AE071202DBEF640160F8D2A0C2A1C2A2C2
:0F02B3008E8000000000D2A200000000C2A22234
:10024D007F0F12027D12027B12027B7F051202F1DB
:10025D007F0C1202827F051202F17F061202827F4D
:0E026D00051202F17F011202827F050202F1EA
:10000E0012024D7F0A1202F17F01120325E4FDED6B
:10001E009002C293FF60061202A30D80F2E4F51760
:10002E00F508C2B3758910C288C2A8D2AF7F41123B
:10003E0003257F4A1202A37F551202A37F4C1202A0
:10004E00A37F491202A37F3A1202A3E5099002D0C0
:10005E0093FF1202A3E50B93FF1202A37F2E12024F
:10006E00A3E50D93FF1202A37F201202A37F43127A
:10007E0002A37F4D1202A3C2AFD2B312032CC2B39E
:10008E0030B2FDC200D2A8E4F58DF58BC28FD28EB0
:10009E00D2AFE58DC3941E40F9C28EC2A83000299E
:1000AE00751800850C19E519751900F518E50E423D
:1000BE0019E4AE18AF19FC7D0C1201578E188F196A
:1000CE007D3A1201698E188F19200005E4F518F596
:1000DE0019E51725E0240FF8A61808A6190517E547
:1000EE00176403600302003BE5102512CFE50F35C0
:1000FE0011CF2514CF3513CF2516CF3515FEEF783A
:10010E0002CEC313CE13D8F9F5198E181201BE857F
:10011E001118851219AF19AE18E51BB50708E51AA7
:10012E00B50603E4F51CE51B6F7003E51A6E60025D
:10013E00051CE51CC39403400AE4F51C8E1A8F1BA4
:09014E0012020AE4F51702003B5D
:0300030002031ADB
:0B031A00858D0C858B0ED200C2A8322E
:03000B00020006EA
:0100060032C7
:04020A00AB07AA068E
:10020E007C007D641201698F1E7C007D64AF03AE9D
:10021E0002120169AA04AB057C007D0AAF03AE028F
:10022E001201698F1D7C007D0AAF03AE02120169B7
:0E023E00AF05C2AF851E09851D0B8F0DD2AF17
:01024C00228F
:06032C00E4FF0FBF3CFCE2
:0103320022A8
:1001BE00D3E5109512E50F9511400EAE0FAF1085D9
:1001CE00110F8512108E118F12D3E5109514E50FB5
:1001DE009513400EAE13AF14850F138510148E0FAA
:1001EE008F10D3E5129514E5119513400EAE11AF95
:0B01FE00128513118514128E138F144C
:0102090022D2
:0300000002030EEA
:0C030E00787FE4F6D8FD75812002000E17
:10015700EF8DF0A4A8F0CF8CF0A428CE8DF0A42EBC
:02016700FE2276
:10016900BC000BBE0029EF8DF084FFADF022E4CC7A
:10017900F875F008EF2FFFEE33FEEC33FCEE9DEC43
:10018900984005FCEE9DFE0FD5F0E9E4CEFD22ED89
:10019900F8F5F0EE8420D21CFEADF075F008EF2FD3
:1001A900FFED33FD4007985006D5F0F222C398FDC4
:0501B9000FD5F0EA2261
:00000001FF
