:10005600EF1FAA0670011E4A600BE4FDEDC3947300
:0500660050EE0D80F7D3
:01006B002272
:06008200E4FF0FBF39FC92
:010088002255
:0A007800C2B6120082D2B602008266
:10003C00E4FDFC1200780DBD00010CBC01F5BDF413
:0A004C00F2D2B67FF47E01020056E6
:10000300C2A77580C07590FF85900853080FE50857
:10001300B4040675808812003CE508B401057580B8
:1000230083D2B6E508B408057580C6D2B7E508B42F
:0900330002D37580A1C2B780CC94
:0300000002006C8F
:0C006C00787FE4F6D8FD758109020003DE
:00000001FF
