:1000F000FEFDFBF7EFDFBF7F6060003E7F417F3E8C
:10010000606000427F7F40006060006273594F462C
:10011000606000226B497F36606000383E7F7F2040
:100120006060004F4F4979316060003E7F497B320B
:100130006060000373790F07606000367F497F3687
:10014000606000266F497F3E003E7F417F3E000099
:1001500000427F7F40000000006273594F4600005C
:1001600000226B497F36000000383E7F7F20000070
:10017000004F4F4979310000003E7F497B3200003B
:10018000000373790F07000000367F497F360000B7
:1001900000266F497F3E00000000000000000000C4
:10027F0020382200000000000000000000000000F5
:10028F00000000000000000000000000000000005F
:10029F0000000000000000000000000003033E7F8C
:0B02AF0041632200000000000000007E
:10039400E4FEC296EF339294EF25E0FFD2960EBEB0
:0203A40008F05F
:0103A6002234
:05000300C295D2952218
:1002BB00D2B3E4F55E055EE55EB402F9C2B3E4F5D4
:1002CB005E055EE55EB4C8F9D2B3E4F55E055EE5A6
:1002DB005EB40AF9A2B39200E4F55E055EE55EB486
:0402EB00C8F9A200AC
:0102EF0022EC
:10032400E4FED2B300C2B3EFC313FF00D2B3E4F5CB
:100334005E055EE55EB402F930B3054307808000D4
:0E034400E4F55E055EE55EB408F90EBE08D471
:010352002288
:1002F000E4FED2B300C2B3EF1392B3E4F55E055E41
:10030000E55EB40AF9D2B3E4F55E055EE55EB401DC
:10031000F9EFC313FF0EBE08D9E4F55E055EE55E96
:03032000B404F929
:0103230022B7
:100353001202BB7FCC1202F07F441202F0E4F55E7E
:10036300055EE55EB464F91202BB7FCC1202F07F36
:04037300BE0202F0D4
:10022C00E5216402704CE55F9000F093FF1203949B
:10023C00E55F25632422F8E6FF1203941200030500
:10024C005FE55FB40803E4F55F0561E561700205E5
:10025C006064644560700CF560F5610563E563707E
:10026C00020562E563643145627007F562F56375FA
:03027C002101223B
:1003A700758911758CFC758A66D2AFD2A9D28C2259
:03000B0002037776
:10037700C0E0C083C082C0D075D000758CFC758A80
:0D0387006612022CD0D0D082D083D0E0329C
:10000E007521011203A7E5216401704C12035312EE
:10001E000324AD07120324EDC4540FFEEFC454F0B5
:10002E002EFCED540F75F00AA4FFE5F0C4F854F061
:10003E00C8EFC4540F48FFEC75F06484F55AEC75A4
:10004E00F06484E5F075F00A84F55BEC75F00A84D3
:10005E0085F05C8F5DE4F521E52170AA756501E5FB
:10006E0065C3940650A0E565B40503752102E4F559
:10007E0064E56524FE601114601514602D24037070
:10008E005475F008E55A800C75F008E55B8005752F
:10009E00F008E55CA42564F582E435F0F583E5828D
:1000AE002448F582E5833401801975F008E55DA4D6
:1000BE002564F582E435F0F583E58224F8F582E5D2
:1000CE00833400F583E493FFE56575F008A4256499
:1000DE002422F8A6070564E5646408709405650299
:0200EE00006DA3
:030000000201A05A
:0C01A000787FE4F6D8FD7581650201E768
:1001AC0002000EE493A3F8E493A34003F68001F25B
:1001BC0008DFF48029E493A3F85407240CC8C33354
:1001CC00C4540F4420C8834004F456800146F6DF23
:1001DC00E4800B010204081020408090027FE47E32
:1001EC00019360BCA3FF543F30E509541FFEE49318
:1001FC00A360010ECF54C025E060A840B8E493A3DF
:10020C00FAE493A3F8E493A3C8C582C8CAC583CA09
:10021C00F0A3C8C582C8CAC583CADFE9DEE780BEC1
:0102BA000043
:00000001FF
