:10013E00FA15FA67FB04FB90FC0CFC44FCACFD09C1
:10014E00FD34FD82FDC8FE06FE22FE56FE85FE9A99
:040003007F2CDFFE71
:0100070022D6
:1000E700E59054F0FFBFF0037F00227FFEEF30E47E
:1000F7001FF590E59054F064F0600DE59054F044DE
:100107000FF4FEEFF42EFF22EF25E04401FF80DD20
:0101170022C5
:03000B0002016A85
:09016A0085088C85098AB2B632C1
:10000E00758901D2A9D2AF7590F0E59054F064F0E5
:10001E0060F5120003E59054F064F060EA1200E718
:10002E00EF120118006611007A12008E1400A21849
:10003E00006B21007F2200932400A728007041004E
:10004E00844200984400AC48007581008982009D6E
:10005E008400B188000000B4E4F50A8049750A01F5
:10006E008044750A02803F750A03803A750A04803F
:10007E0035750A058030750A06802B750A078026AD
:10008E00750A088021750A09801C750A0A80177581
:10009E000A0B8012750A0C800D750A0D8008750A00
:1000AE000E8003750A0FB2B6E50A25E0243EF582EE
:1000BE00E43401F583E493FC740193FDECF508AF91
:1000CE00058F09D28C8008E59054F064F0600575B8
:0900DE0090F080F3C28E020015BF
:0300000002015E9C
:0C015E00787FE4F6D8FD75810A02000EDF
:10011800D083D082F8E4937012740193700DA3A376
:1001280093F8740193F5828883E47374029368608A
:06013800EFA3A3A380DF8A
:00000001FF
